:04000000020089323F
:03000B000204C12B
:0100130032BA
:01001B0032B2
:0100230032AA
:01002B0032A2
:01003300329A
:01003B003292
:01004300328A
:01004B003282
:01005300327A
:01005B003272
:01006300326A
:01006B003262
:01007300325A
:01007B003252
:0300830002043A3A
:2000E200E4F521F52275230FF524F525752610752727F528F529752AC8F52BF52CF52DF5AB
:0C01020037F538F539F53AF53B02008678
:030086000207C8A6
:20010E00AF827E00C3EE9F500B7D78ED14FCFD70FA0E80F022AF82C2CD7E078EF005F0EFD7
:20012E008002C313D5F0FB540124FF92CCD2CDC2CD1EEE30E7E5D2CCD2CD20CCFDC2CD22B6
:20014E00AF82C2CCD2CCD2CDC2CCC2CD8F82020123AF82758278C00712014E75820012016F
:20016E0023D0078F82120123C2CCD2CDC2CCD2CC22AF828F3CAE3E8E3D758221C007C0065D
:20018E0012015FD0068E8212015F75827F12015F75822212015FD0078F8212015F758207BC
:2001AE0012015F75827812014E758240020123053C533C07753E00853C8202017FAF82AD65
:2001CE003D7E0074052DFDE43EFEC3ED9480EE648094804007C0071201BDD007EF24E075CC
:2001EE00F005A42407FE740D35F0FF7D00ED2EF582E43FF583E493F582C007C006C005128E
:20020E000123D005D006D007053D0DBD05DF758200120123053D22858240858341E54045AF
:20022E0041701BFDC3ED953F400122BD0A00400122758230C0051201CBD0050D80E674FF51
:20024E00B53F0474018001E4FDC3740A953FE433FC754200C3E542953F504FE5404541607A
:20026E0038E5422443F975080A750900854082854183C005C004C001120BD0AA82AF83D0B7
:20028E0001D004D0058A06EE75F00AA4FEE540FBC39EF78A408F41800DED700EEC700BE5C1
:2002AE00422443F87600054280AAAF42EF60308F06EE142443F9E724F6500DEE142443F981
:2002CE00870574372DFD800BEE142443F9870674302EFD8D82C0071201CBD0071F80CD224D
:2002EE00AD82AE83AFF08D828E838FF0120BF9FC60188C820DBD00010EC007C006C005127D
:20030E0001CBD005D006D00780DC2275822112015F75820012015F75827F12015F7582220F
:20032E0012015F75820012015F75820712015F75827812014E7582401201237E007F0075B5
:20034E008200C007C006120123D006D0070EBE00010FC3EF6480948440E575822112015F64
:20036E0075820012015F75827F12015F75822212015F75820012015F75820712015F7582C3
:20038E007812014E7582400201237582AE12015F7582D512015F75828012015F7582A8122A
:2003AE00015F75823F12015F7582D312015F75820012015F75824012015F75828D12015FE3
:2003CE0075821412015F75822012015F75820012015F7582A112015F7582C812015F75826E
:2003EE00DA12015F75821212015F75828112015F7582CF12015F7582D912015F7582F112CA
:20040E00015F7582D812015F75824012015F7582A412015F7582A612015F7582AF12015F50
:20042E00020319753E00853C8202017FC020C0E0C0F0C082C083C007C006C005C004C0038A
:20044E00C002C001C000C0D075D000E538700375360175820312010E20B03B20B21A743084
:20046E00B5210D7475B522087521D075228A80260521E4B52102052230B21B74D0B5210D69
:20048E00748AB522087521307522758009152174FFB521021522D0D0D000D001D002D00378
:2004AE00D004D005D006D007D083D082D0F0D0E0D02032C0E0C0F0C007C006C005C004C07B
:2004CE00D075D000C28C758A00758C10D28C053774F82537400302060C052D7402B52D5FF9
:2004EE00E528FE3395E0FFEE2526F526EF3527F527C3648094FD5010C3E4952674808527E7
:20050E00F063F08095F04006C3E49528F528E529FE3395E0FFEE2524F524EF3525F525C395
:20052E00648094FD5010C3E4952474808525F063F08095F04006C3E49529F529752D0075B2
:20054E0037007401B52C028003020609C3E53294FDE533648094FF500DC3E53494FDE5358C
:20056E00648094FF4009752B03752C0002060CE53024FCF530E53134FFF531E52E2532F52D
:20058E0032E52F3533F533E5302534F534E5313535F535C3E4953474808535F063F08095C0
:2005AE00F0405BE532C39526E533952730E714E532C39526FEE5339527FFC3E49EFEE49FE2
:2005CE00FF800BE532C39526FEE5339527FFAC2A7D00C3EE9CEF64808DF063F08095F05085
:2005EE0005752B028003752B01752C00E532C39526F53AE5339527F53B8003753600D0D0EB
:20060E00D004D005D006D007D0F0D0E032AE82AF83C3EE9521EF64808522F063F08095F049
:20062E005006854D21854E22C3E521954DE5226480854EF063F08095F050048E218F22E524
:20064E002230E71975822D1201CBC3E49521F582E49522F583753F02120225800C753F031F
:20066E00852182852283120225020431E582FF33E433FE600FEFFC3395E0FDC3E49CFCE4DA
:20068E009DFD8006EFFC3395E0FDEFFA3395E0FB8C088D098A828B83C007C006C003C002BA
:2006AE00120C15AC82AD83D002D003D006D0078C4FE4F532F533F534F535EF700D7530FFD8
:2006CE00E4F531F52EF52F02077FBF5A0DE4F530F531752EFFF52F02077FC3E49AFDE49BD3
:2006EE00FFE4F550F551E5502451F582E551340CF583E493F552EE60068D538F5480048A8C
:20070E00538B54A9527C00E9B55306ECB55402800A0550E4B550CF055180CBE529FE339528
:20072E00E0FFA850745AC398F83395E0FDE824ACF582ED340CF583E493FDC2D58DF0E54F7E
:20074E0030E704B2D5F404A430D50AF42401C5F0F43400C5F02EF52EEF35F0F52FE55024B1
:20076E00ACF582E551340CF583E493FF8F30753100752C0122AE82E583FF30E71D75822DCC
:20078E00C007C0061201CBD006D007C3E49EF582E49FF58385553F020225E55504F53F8E3A
:2007AE00828F83020225AF82D2B38F82C00712010ED007C2B38F8202010E7E007F00C2B3DF
:2007CE0075B10075B2FF758F40D2AF758A00758C10758901D28CD2A975D60075D700C007B4
:2007EE00C006120398753E0075820012017F900E2975F0801202EE1201BD900E3F75F080FC
:20080E001202EED006D00720B1FD30B1FD7582FFC007C00612010E753E0075820012017F8F
:20082E00D006D007E53860030208F6900E5775F080C007C0061202EE7555019000001207A0
:20084E0083900E6375F0801202EE900E8175F0801202EE75550585268285278312078390C2
:20086E000E8575F0801202EE755505852482852583120783900E8B75F0801202EE900EA2DD
:20088E0075F0801202EEE528FC3395E0FD7555018C828D83120783900EA775F0801202EE04
:2008AE00E529FC3395E0FD7555018C828D83120783900EB175F0801202EE900EC675F08077
:2008CE001202EE755505853282853383120783900ED075F0801202EE755505853482853510
:2008EE0083120783D006D0077401B53834900ED675F080C007C0061202EE1201BDD006D02A
:20090E0007754DA6754EFF90005AC007C00612061B1201BD900EEB75F0801202EED006D008
:20092E00077402B53834900F6475F080C007C0061202EE1201BDD006D007754DF6754EFF9D
:20094E0090000AC007C00612061B1201BD900EEB75F0801202EED006D0077403B538299025
:20096E000F7975F080C007C0061202EE1201BD900F8E75F0801202EE1201BD900EEB75F0CB
:20098E00801202EED006D0077404B5381D900F9775F080C007C0061202EE1201BD900EEB95
:2009AE0075F0801202EED006D0077405B53835900FAF75F080C007C0061202EEE4F532F538
:2009CE0033F534F5351201BD755506853A82853B831207831201BD900EEB75F0801202EE83
:2009EE00D006D0077406B5381D900FC075F080C007C0061202EE1201BD900EEB75F0801295
:200A0E0002EED006D0077407B5381D900FDA75F080C007C0061202EE1201BD900EEB75F0FB
:200A2E00801202EED006D0077401B53606753801753600E538703720B1070EBE00300F8093
:200A4E002DC3740A9E74808FF063F08095F050097538037E007F008015C3E49E74808FF05E
:200A6E0063F08095F050077538027E007F007401B5382D20B1070EBE00260F8023C3E49EBD
:200A8E0074808FF063F08095F050157538007E007F00852182C007C00612067AD006D0077A
:200AAE007402B5382220B1070EBE001B0F8018C3E49E74808FF063F08095F0500A85212904
:200ACE007538007E007F007403B5382620B1070EBE001F0F801CC3E49E74808FF063F080DB
:200AEE0095F0500EC2AFC28C75BE007538047E007F007404B5382620B1070EBE001F0F8088
:200B0E001CC3E49E74808FF063F08095F0500ED2AFD28C75BE207538007E007F007405B533
:200B2E00381F20B1070EBE00180F8015C3E49E74808FF063F08095F050077538007E007FDF
:200B4E00007406B5382F20B1070EBE00280F8025C3E49E74808FF063F08095F05017E4F521
:200B6E0024F525F529052805280528F526F527F5387E007F007407B5381F20B1070EBE00F8
:200B8E00180F8015C3E49E74808FF063F08095F050077538007E007F007401B52B06753872
:200BAE0005752B007402B52B06753806752B007403B52B02800302081B753807752B00027C
:020BCE00081B02
:200C51005A595857565554535251504F4E4D4C4B4A494847464544434241403F3E3D3C3B33
:200C71003A393837363534333231302F2E2D2C2B2A292827262524232221201F1E1D1C1B13
:200C91001A191817161514131211100F0E0D0C0B0A090807060504030201000004080D11BA
:200CB100161A1F23272C3035393D41464A4E53575B5F63676B6F73777B7F83878A8E92952F
:200CD100999CA0A3A7AAADB1B4B7BABDC0C3C6C8CBCED0D3D5D8DADCDFE1E3E5E7E8EAEC1D
:200CF100EEEFF1F2F3F5F6F7F8F9FAFBFBFCFDFDFEFEFEFEFEFF000000000000002F000053
:200D11000007000700147F147F14242A7F2A12231308646236495522500005030000001C03
:200D31002241000041221C0014083E081408083E08080000A0600008080808080060600004
:200D51000020100804023E5149453E00427F400042615149462141454B311814127F10274E
:200D7100454545393C4A49493001710905033649494936064949291E003636000000563671
:200D910000000814224100141414141400412214080201510906324959513E7C1211127CED
:200DB1007F494949363E414141227F4141221C7F494949417F090909013E4149497A7F08E8
:200DD10008087F00417F41002040413F017F081422417F404040407F020C027F7F0408106B
:200DF1007F3E4141413E7F090909063E4151215E7F09192946464949493101017F01013F11
:200E11004040403F1F2040201F3F4038403F6314081463070870080757454C434F4D45201E
:200E3100544F20424154544C455348495000505245535320454E54455220544F20434F4E00
:200E510054494E554500202020202057494E443A2000202020202020202020202020202010
:200E710020202020202020202020202020202000453A20002020503A200020202020202038
:200E9100202020202020202020202020202020200045533A2000202020202050533A2000B2
:200EB100202020202020202020202020202020202020202000202020202042583A200020ED
:200ED10042593A2000484F57204D414E5920444547524545533F202020002020202020204B
:200EF1002020202020202020202020202020202020202020202020202020202020202020E1
:200F11002020202020202020202020202020202020202020202020202020202020202020C0
:200F31002020202020202020202020202020202020202020202020202020202020202020A0
:200F510020202020202020202020202020202020202000534849502053504545443F2020FC
:200F710020202020202020004F52444552533F2020202020202020202020202000312E2053
:200F91005041555345005041555345442E20505245535320544F20524553554D4500594FC9
:200FB100552048415645204D49535345442100594F5520484156452048495421204E45580F
:200FD10054204C4556454C2100594F5520484156452053484F54204F5554204F4620424FD6
:050FF100554E445300C1
:200BD0007A10E4FBFCE58225E0F582E58333F583EB33FBEC33FCEB9508F5F0EC9509400639
:090BF000FCABF0438201DADD22C6
:0600B800E478FFF6D8FD1C
:200096007900E94400601B7A00900FF6780175A000E493F2A308B8000205A0D9F4DAF2750B
:0200B600A0FFA9
:2000BE007800E84400600A790175A000E4F309D8FC7800E84400600C7900900001E4F0A340
:0400DE00D8FCD9FA77
:0D008900758155120C4DE582600302008662
:1C0BF90020F71430F6148883A88220F507E6A88375830022E280F7E49322E0220B
:200C1500C2D5E58330E70DD2D5E4C39582F582E49583F583E50930E70DB2D5E4C39508F57A
:180C350008E49509F509120BD030D50BE4C39582F582E49583F5832257
:040C4D00758200228A
:00000001FF
